{
  "_format": "hh-sol-artifact-1",
  "contractName": "Land",
  "sourceName": "src/backend/contracts/Land.sol",
  "abi": [
    {
      "inputs": [
        {
          "internalType": "string",
          "name": "_name",
          "type": "string"
        },
        {
          "internalType": "string",
          "name": "_symbol",
          "type": "string"
        },
        {
          "internalType": "uint256",
          "name": "_cost",
          "type": "uint256"
        }
      ],
      "stateMutability": "nonpayable",
      "type": "constructor"
    },
    {
      "anonymous": false,
      "inputs": [
        {
          "indexed": true,
          "internalType": "address",
          "name": "owner",
          "type": "address"
        },
        {
          "indexed": true,
          "internalType": "address",
          "name": "approved",
          "type": "address"
        },
        {
          "indexed": true,
          "internalType": "uint256",
          "name": "tokenId",
          "type": "uint256"
        }
      ],
      "name": "Approval",
      "type": "event"
    },
    {
      "anonymous": false,
      "inputs": [
        {
          "indexed": true,
          "internalType": "address",
          "name": "owner",
          "type": "address"
        },
        {
          "indexed": true,
          "internalType": "address",
          "name": "operator",
          "type": "address"
        },
        {
          "indexed": false,
          "internalType": "bool",
          "name": "approved",
          "type": "bool"
        }
      ],
      "name": "ApprovalForAll",
      "type": "event"
    },
    {
      "anonymous": false,
      "inputs": [
        {
          "indexed": true,
          "internalType": "address",
          "name": "from",
          "type": "address"
        },
        {
          "indexed": true,
          "internalType": "address",
          "name": "to",
          "type": "address"
        },
        {
          "indexed": true,
          "internalType": "uint256",
          "name": "tokenId",
          "type": "uint256"
        }
      ],
      "name": "Transfer",
      "type": "event"
    },
    {
      "inputs": [
        {
          "internalType": "address",
          "name": "to",
          "type": "address"
        },
        {
          "internalType": "uint256",
          "name": "tokenId",
          "type": "uint256"
        }
      ],
      "name": "approve",
      "outputs": [],
      "stateMutability": "nonpayable",
      "type": "function"
    },
    {
      "inputs": [
        {
          "internalType": "address",
          "name": "owner",
          "type": "address"
        }
      ],
      "name": "balanceOf",
      "outputs": [
        {
          "internalType": "uint256",
          "name": "",
          "type": "uint256"
        }
      ],
      "stateMutability": "view",
      "type": "function"
    },
    {
      "inputs": [
        {
          "internalType": "uint256",
          "name": "",
          "type": "uint256"
        }
      ],
      "name": "buildings",
      "outputs": [
        {
          "internalType": "string",
          "name": "name",
          "type": "string"
        },
        {
          "internalType": "address",
          "name": "owner",
          "type": "address"
        },
        {
          "internalType": "int256",
          "name": "posX",
          "type": "int256"
        },
        {
          "internalType": "int256",
          "name": "posY",
          "type": "int256"
        },
        {
          "internalType": "int256",
          "name": "posZ",
          "type": "int256"
        },
        {
          "internalType": "uint256",
          "name": "sizeX",
          "type": "uint256"
        },
        {
          "internalType": "uint256",
          "name": "sizeY",
          "type": "uint256"
        },
        {
          "internalType": "uint256",
          "name": "sizeZ",
          "type": "uint256"
        }
      ],
      "stateMutability": "view",
      "type": "function"
    },
    {
      "inputs": [],
      "name": "cost",
      "outputs": [
        {
          "internalType": "uint256",
          "name": "",
          "type": "uint256"
        }
      ],
      "stateMutability": "view",
      "type": "function"
    },
    {
      "inputs": [
        {
          "internalType": "uint256",
          "name": "tokenId",
          "type": "uint256"
        }
      ],
      "name": "getApproved",
      "outputs": [
        {
          "internalType": "address",
          "name": "",
          "type": "address"
        }
      ],
      "stateMutability": "view",
      "type": "function"
    },
    {
      "inputs": [
        {
          "internalType": "uint256",
          "name": "_id",
          "type": "uint256"
        }
      ],
      "name": "getBuilding",
      "outputs": [
        {
          "components": [
            {
              "internalType": "string",
              "name": "name",
              "type": "string"
            },
            {
              "internalType": "address",
              "name": "owner",
              "type": "address"
            },
            {
              "internalType": "int256",
              "name": "posX",
              "type": "int256"
            },
            {
              "internalType": "int256",
              "name": "posY",
              "type": "int256"
            },
            {
              "internalType": "int256",
              "name": "posZ",
              "type": "int256"
            },
            {
              "internalType": "uint256",
              "name": "sizeX",
              "type": "uint256"
            },
            {
              "internalType": "uint256",
              "name": "sizeY",
              "type": "uint256"
            },
            {
              "internalType": "uint256",
              "name": "sizeZ",
              "type": "uint256"
            }
          ],
          "internalType": "struct Land.Building",
          "name": "",
          "type": "tuple"
        }
      ],
      "stateMutability": "view",
      "type": "function"
    },
    {
      "inputs": [],
      "name": "getBuildings",
      "outputs": [
        {
          "components": [
            {
              "internalType": "string",
              "name": "name",
              "type": "string"
            },
            {
              "internalType": "address",
              "name": "owner",
              "type": "address"
            },
            {
              "internalType": "int256",
              "name": "posX",
              "type": "int256"
            },
            {
              "internalType": "int256",
              "name": "posY",
              "type": "int256"
            },
            {
              "internalType": "int256",
              "name": "posZ",
              "type": "int256"
            },
            {
              "internalType": "uint256",
              "name": "sizeX",
              "type": "uint256"
            },
            {
              "internalType": "uint256",
              "name": "sizeY",
              "type": "uint256"
            },
            {
              "internalType": "uint256",
              "name": "sizeZ",
              "type": "uint256"
            }
          ],
          "internalType": "struct Land.Building[]",
          "name": "",
          "type": "tuple[]"
        }
      ],
      "stateMutability": "view",
      "type": "function"
    },
    {
      "inputs": [
        {
          "internalType": "address",
          "name": "owner",
          "type": "address"
        },
        {
          "internalType": "address",
          "name": "operator",
          "type": "address"
        }
      ],
      "name": "isApprovedForAll",
      "outputs": [
        {
          "internalType": "bool",
          "name": "",
          "type": "bool"
        }
      ],
      "stateMutability": "view",
      "type": "function"
    },
    {
      "inputs": [],
      "name": "maxSupply",
      "outputs": [
        {
          "internalType": "uint256",
          "name": "",
          "type": "uint256"
        }
      ],
      "stateMutability": "view",
      "type": "function"
    },
    {
      "inputs": [
        {
          "internalType": "uint256",
          "name": "_id",
          "type": "uint256"
        }
      ],
      "name": "mint",
      "outputs": [],
      "stateMutability": "payable",
      "type": "function"
    },
    {
      "inputs": [],
      "name": "name",
      "outputs": [
        {
          "internalType": "string",
          "name": "",
          "type": "string"
        }
      ],
      "stateMutability": "view",
      "type": "function"
    },
    {
      "inputs": [
        {
          "internalType": "uint256",
          "name": "tokenId",
          "type": "uint256"
        }
      ],
      "name": "ownerOf",
      "outputs": [
        {
          "internalType": "address",
          "name": "",
          "type": "address"
        }
      ],
      "stateMutability": "view",
      "type": "function"
    },
    {
      "inputs": [
        {
          "internalType": "address",
          "name": "from",
          "type": "address"
        },
        {
          "internalType": "address",
          "name": "to",
          "type": "address"
        },
        {
          "internalType": "uint256",
          "name": "tokenId",
          "type": "uint256"
        }
      ],
      "name": "safeTransferFrom",
      "outputs": [],
      "stateMutability": "nonpayable",
      "type": "function"
    },
    {
      "inputs": [
        {
          "internalType": "address",
          "name": "from",
          "type": "address"
        },
        {
          "internalType": "address",
          "name": "to",
          "type": "address"
        },
        {
          "internalType": "uint256",
          "name": "tokenId",
          "type": "uint256"
        },
        {
          "internalType": "bytes",
          "name": "_data",
          "type": "bytes"
        }
      ],
      "name": "safeTransferFrom",
      "outputs": [],
      "stateMutability": "nonpayable",
      "type": "function"
    },
    {
      "inputs": [
        {
          "internalType": "address",
          "name": "operator",
          "type": "address"
        },
        {
          "internalType": "bool",
          "name": "approved",
          "type": "bool"
        }
      ],
      "name": "setApprovalForAll",
      "outputs": [],
      "stateMutability": "nonpayable",
      "type": "function"
    },
    {
      "inputs": [
        {
          "internalType": "bytes4",
          "name": "interfaceId",
          "type": "bytes4"
        }
      ],
      "name": "supportsInterface",
      "outputs": [
        {
          "internalType": "bool",
          "name": "",
          "type": "bool"
        }
      ],
      "stateMutability": "view",
      "type": "function"
    },
    {
      "inputs": [],
      "name": "symbol",
      "outputs": [
        {
          "internalType": "string",
          "name": "",
          "type": "string"
        }
      ],
      "stateMutability": "view",
      "type": "function"
    },
    {
      "inputs": [
        {
          "internalType": "uint256",
          "name": "tokenId",
          "type": "uint256"
        }
      ],
      "name": "tokenURI",
      "outputs": [
        {
          "internalType": "string",
          "name": "",
          "type": "string"
        }
      ],
      "stateMutability": "view",
      "type": "function"
    },
    {
      "inputs": [],
      "name": "totalSupply",
      "outputs": [
        {
          "internalType": "uint256",
          "name": "",
          "type": "uint256"
        }
      ],
      "stateMutability": "view",
      "type": "function"
    },
    {
      "inputs": [
        {
          "internalType": "address",
          "name": "from",
          "type": "address"
        },
        {
          "internalType": "address",
          "name": "to",
          "type": "address"
        },
        {
          "internalType": "uint256",
          "name": "tokenId",
          "type": "uint256"
        }
      ],
      "name": "transferFrom",
      "outputs": [],
      "stateMutability": "nonpayable",
      "type": "function"
    }
  ],
  "bytecode": "0x6080604052670de0b6b3a7640000600655600560075560006008553480156200002757600080fd5b50604051620040d0380380620040d083398181016040528101906200004d9190620008d1565b828281600090805190602001906200006792919062000798565b5080600190805190602001906200008092919062000798565b5050508060068190555060096040518061010001604052806040518060400160405280600981526020017f436974792048616c6c00000000000000000000000000000000000000000000008152508152602001600073ffffffffffffffffffffffffffffffffffffffff168152602001600081526020016000815260200160008152602001600a8152602001600a8152602001600a815250908060018154018082558091505060019003906000526020600020906008020160009091909190915060008201518160000190805190602001906200015f92919062000798565b5060208201518160010160006101000a81548173ffffffffffffffffffffffffffffffffffffffff021916908373ffffffffffffffffffffffffffffffffffffffff16021790555060408201518160020155606082015181600301556080820151816004015560a0820151816005015560c0820151816006015560e08201518160070155505060096040518061010001604052806040518060400160405280600981526020017f43697479204d616c6c00000000000000000000000000000000000000000000008152508152602001600073ffffffffffffffffffffffffffffffffffffffff16815260200160008152602001600a815260200160008152602001600a815260200160058152602001600381525090806001815401808255809150506001900390600052602060002090600802016000909190919091506000820151816000019080519060200190620002ba92919062000798565b5060208201518160010160006101000a81548173ffffffffffffffffffffffffffffffffffffffff021916908373ffffffffffffffffffffffffffffffffffffffff16021790555060408201518160020155606082015181600301556080820151816004015560a0820151816005015560c0820151816006015560e08201518160070155505060096040518061010001604052806040518060400160405280600a81526020017f4369747920506c617a61000000000000000000000000000000000000000000008152508152602001600073ffffffffffffffffffffffffffffffffffffffff1681526020017ffffffffffffffffffffffffffffffffffffffffffffffffffffffffffffffff681526020016000815260200160008152602001600a8152602001600581526020016003815250908060018154018082558091505060019003906000526020600020906008020160009091909190915060008201518160000190805190602001906200043492919062000798565b5060208201518160010160006101000a81548173ffffffffffffffffffffffffffffffffffffffff021916908373ffffffffffffffffffffffffffffffffffffffff16021790555060408201518160020155606082015181600301556080820151816004015560a0820151816005015560c0820151816006015560e08201518160070155505060096040518061010001604052806040518060400160405280600b81526020017f436974792047617264656e0000000000000000000000000000000000000000008152508152602001600073ffffffffffffffffffffffffffffffffffffffff168152602001600a8152602001600081526020016000815260200160058152602001601981526020016005815250908060018154018082558091505060019003906000526020600020906008020160009091909190915060008201518160000190805190602001906200058f92919062000798565b5060208201518160010160006101000a81548173ffffffffffffffffffffffffffffffffffffffff021916908373ffffffffffffffffffffffffffffffffffffffff16021790555060408201518160020155606082015181600301556080820151816004015560a0820151816005015560c0820151816006015560e08201518160070155505060096040518061010001604052806040518060400160405280600b81526020017f4a464b206c6962726172790000000000000000000000000000000000000000008152508152602001600073ffffffffffffffffffffffffffffffffffffffff1681526020017ffffffffffffffffffffffffffffffffffffffffffffffffffffffffffffffff68152602001600081526020016000815260200160058152602001601981526020016005815250908060018154018082558091505060019003906000526020600020906008020160009091909190915060008201518160000190805190602001906200070992919062000798565b5060208201518160010160006101000a81548173ffffffffffffffffffffffffffffffffffffffff021916908373ffffffffffffffffffffffffffffffffffffffff16021790555060408201518160020155606082015181600301556080820151816004015560a0820151816005015560c0820151816006015560e08201518160070155505050505062000aed565b828054620007a690620009f8565b90600052602060002090601f016020900481019282620007ca576000855562000816565b82601f10620007e557805160ff191683800117855562000816565b8280016001018555821562000816579182015b8281111562000815578251825591602001919060010190620007f8565b5b50905062000825919062000829565b5090565b5b80821115620008445760008160009055506001016200082a565b5090565b60006200085f620008598462000982565b62000959565b9050828152602081018484840111156200087857600080fd5b62000885848285620009c2565b509392505050565b600082601f8301126200089f57600080fd5b8151620008b184826020860162000848565b91505092915050565b600081519050620008cb8162000ad3565b92915050565b600080600060608486031215620008e757600080fd5b600084015167ffffffffffffffff8111156200090257600080fd5b62000910868287016200088d565b935050602084015167ffffffffffffffff8111156200092e57600080fd5b6200093c868287016200088d565b92505060406200094f86828701620008ba565b9150509250925092565b60006200096562000978565b905062000973828262000a2e565b919050565b6000604051905090565b600067ffffffffffffffff821115620009a0576200099f62000a93565b5b620009ab8262000ac2565b9050602081019050919050565b6000819050919050565b60005b83811015620009e2578082015181840152602081019050620009c5565b83811115620009f2576000848401525b50505050565b6000600282049050600182168062000a1157607f821691505b6020821081141562000a285762000a2762000a64565b5b50919050565b62000a398262000ac2565b810181811067ffffffffffffffff8211171562000a5b5762000a5a62000a93565b5b80604052505050565b7f4e487b7100000000000000000000000000000000000000000000000000000000600052602260045260246000fd5b7f4e487b7100000000000000000000000000000000000000000000000000000000600052604160045260246000fd5b6000601f19601f8301169050919050565b62000ade81620009b8565b811462000aea57600080fd5b50565b6135d38062000afd6000396000f3fe60806040526004361061011f5760003560e01c806370a08231116100a0578063b88d4fde11610064578063b88d4fde14610405578063c87b56dd1461042e578063d5abeb011461046b578063d9cf6a2614610496578063e985e9c5146104c15761011f565b806370a082311461031b57806395d89b41146103585780639dfd8b0214610383578063a0712d68146103c0578063a22cb465146103dc5761011f565b806318160ddd116100e757806318160ddd1461021d57806323b872dd1461024857806342842e0e146102715780634c96a0621461029a5780636352211e146102de5761011f565b806301ffc9a71461012457806306fdde0314610161578063081812fc1461018c578063095ea7b3146101c957806313faede6146101f2575b600080fd5b34801561013057600080fd5b5061014b60048036038101906101469190612316565b6104fe565b60405161015891906129bf565b60405180910390f35b34801561016d57600080fd5b506101766105e0565b60405161018391906129da565b60405180910390f35b34801561019857600080fd5b506101b360048036038101906101ae9190612368565b610672565b6040516101c09190612936565b60405180910390f35b3480156101d557600080fd5b506101f060048036038101906101eb91906122da565b6106f7565b005b3480156101fe57600080fd5b5061020761080f565b6040516102149190612cc3565b60405180910390f35b34801561022957600080fd5b50610232610815565b60405161023f9190612cc3565b60405180910390f35b34801561025457600080fd5b5061026f600480360381019061026a91906121d4565b61081b565b005b34801561027d57600080fd5b50610298600480360381019061029391906121d4565b610911565b005b3480156102a657600080fd5b506102c160048036038101906102bc9190612368565b610931565b6040516102d59897969594939291906129fc565b60405180910390f35b3480156102ea57600080fd5b5061030560048036038101906103009190612368565b610a31565b6040516103129190612936565b60405180910390f35b34801561032757600080fd5b50610342600480360381019061033d919061216f565b610ae3565b60405161034f9190612cc3565b60405180910390f35b34801561036457600080fd5b5061036d610b9b565b60405161037a91906129da565b60405180910390f35b34801561038f57600080fd5b506103aa60048036038101906103a59190612368565b610c2d565b6040516103b79190612ca1565b60405180910390f35b6103da60048036038101906103d59190612368565b610dc0565b005b3480156103e857600080fd5b5061040360048036038101906103fe919061229e565b610ff0565b005b34801561041157600080fd5b5061042c60048036038101906104279190612223565b611006565b005b34801561043a57600080fd5b5061045560048036038101906104509190612368565b6110fe565b60405161046291906129da565b60405180910390f35b34801561047757600080fd5b506104806111a5565b60405161048d9190612cc3565b60405180910390f35b3480156104a257600080fd5b506104ab6111ab565b6040516104b8919061299d565b60405180910390f35b3480156104cd57600080fd5b506104e860048036038101906104e39190612198565b61132f565b6040516104f591906129bf565b60405180910390f35b60007f80ac58cd000000000000000000000000000000000000000000000000000000007bffffffffffffffffffffffffffffffffffffffffffffffffffffffff1916827bffffffffffffffffffffffffffffffffffffffffffffffffffffffff191614806105c957507f5b5e139f000000000000000000000000000000000000000000000000000000007bffffffffffffffffffffffffffffffffffffffffffffffffffffffff1916827bffffffffffffffffffffffffffffffffffffffffffffffffffffffff1916145b806105d957506105d8826113c3565b5b9050919050565b6060600080546105ef90612f3c565b80601f016020809104026020016040519081016040528092919081815260200182805461061b90612f3c565b80156106685780601f1061063d57610100808354040283529160200191610668565b820191906000526020600020905b81548152906001019060200180831161064b57829003601f168201915b5050505050905090565b600061067d8261142d565b6106bc576040517f08c379a00000000000000000000000000000000000000000000000000000000081526004016106b390612c01565b60405180910390fd5b6004600083815260200190815260200160002060009054906101000a900473ffffffffffffffffffffffffffffffffffffffff169050919050565b600061070282610a31565b90508073ffffffffffffffffffffffffffffffffffffffff168373ffffffffffffffffffffffffffffffffffffffff161415610773576040517f08c379a000000000000000000000000000000000000000000000000000000000815260040161076a90612c41565b60405180910390fd5b8073ffffffffffffffffffffffffffffffffffffffff16610792611499565b73ffffffffffffffffffffffffffffffffffffffff1614806107c157506107c0816107bb611499565b61132f565b5b610800576040517f08c379a00000000000000000000000000000000000000000000000000000000081526004016107f790612b81565b60405180910390fd5b61080a83836114a1565b505050565b60065481565b60085481565b61082c610826611499565b8261155a565b61086b576040517f08c379a000000000000000000000000000000000000000000000000000000000815260040161086290612c61565b60405180910390fd5b81600960018361087b9190612e48565b815481106108b2577f4e487b7100000000000000000000000000000000000000000000000000000000600052603260045260246000fd5b906000526020600020906008020160010160006101000a81548173ffffffffffffffffffffffffffffffffffffffff021916908373ffffffffffffffffffffffffffffffffffffffff16021790555061090c838383611638565b505050565b61092c83838360405180602001604052806000815250611006565b505050565b6009818154811061094157600080fd5b906000526020600020906008020160009150905080600001805461096490612f3c565b80601f016020809104026020016040519081016040528092919081815260200182805461099090612f3c565b80156109dd5780601f106109b2576101008083540402835291602001916109dd565b820191906000526020600020905b8154815290600101906020018083116109c057829003601f168201915b5050505050908060010160009054906101000a900473ffffffffffffffffffffffffffffffffffffffff16908060020154908060030154908060040154908060050154908060060154908060070154905088565b6000806002600084815260200190815260200160002060009054906101000a900473ffffffffffffffffffffffffffffffffffffffff169050600073ffffffffffffffffffffffffffffffffffffffff168173ffffffffffffffffffffffffffffffffffffffff161415610ada576040517f08c379a0000000000000000000000000000000000000000000000000000000008152600401610ad190612bc1565b60405180910390fd5b80915050919050565b60008073ffffffffffffffffffffffffffffffffffffffff168273ffffffffffffffffffffffffffffffffffffffff161415610b54576040517f08c379a0000000000000000000000000000000000000000000000000000000008152600401610b4b90612ba1565b60405180910390fd5b600360008373ffffffffffffffffffffffffffffffffffffffff1673ffffffffffffffffffffffffffffffffffffffff168152602001908152602001600020549050919050565b606060018054610baa90612f3c565b80601f0160208091040260200160405190810160405280929190818152602001828054610bd690612f3c565b8015610c235780601f10610bf857610100808354040283529160200191610c23565b820191906000526020600020905b815481529060010190602001808311610c0657829003601f168201915b5050505050905090565b610c35612043565b6009600183610c449190612e48565b81548110610c7b577f4e487b7100000000000000000000000000000000000000000000000000000000600052603260045260246000fd5b906000526020600020906008020160405180610100016040529081600082018054610ca590612f3c565b80601f0160208091040260200160405190810160405280929190818152602001828054610cd190612f3c565b8015610d1e5780601f10610cf357610100808354040283529160200191610d1e565b820191906000526020600020905b815481529060010190602001808311610d0157829003601f168201915b505050505081526020016001820160009054906101000a900473ffffffffffffffffffffffffffffffffffffffff1673ffffffffffffffffffffffffffffffffffffffff1673ffffffffffffffffffffffffffffffffffffffff16815260200160028201548152602001600382015481526020016004820154815260200160058201548152602001600682015481526020016007820154815250509050919050565b60006008549050600754811115610e0c576040517f08c379a0000000000000000000000000000000000000000000000000000000008152600401610e0390612b01565b60405180910390fd5b600073ffffffffffffffffffffffffffffffffffffffff166009600184610e339190612e48565b81548110610e6a577f4e487b7100000000000000000000000000000000000000000000000000000000600052603260045260246000fd5b906000526020600020906008020160010160009054906101000a900473ffffffffffffffffffffffffffffffffffffffff1673ffffffffffffffffffffffffffffffffffffffff1614610ef2576040517f08c379a0000000000000000000000000000000000000000000000000000000008152600401610ee990612a81565b60405180910390fd5b600654341015610f37576040517f08c379a0000000000000000000000000000000000000000000000000000000008152600401610f2e90612c81565b60405180910390fd5b336009600184610f479190612e48565b81548110610f7e577f4e487b7100000000000000000000000000000000000000000000000000000000600052603260045260246000fd5b906000526020600020906008020160010160006101000a81548173ffffffffffffffffffffffffffffffffffffffff021916908373ffffffffffffffffffffffffffffffffffffffff1602179055506001600854610fdc9190612dc1565b600881905550610fec338361189f565b5050565b611002610ffb611499565b83836118bd565b5050565b611017611011611499565b8361155a565b611056576040517f08c379a000000000000000000000000000000000000000000000000000000000815260040161104d90612c61565b60405180910390fd5b8260096001846110669190612e48565b8154811061109d577f4e487b7100000000000000000000000000000000000000000000000000000000600052603260045260246000fd5b906000526020600020906008020160010160006101000a81548173ffffffffffffffffffffffffffffffffffffffff021916908373ffffffffffffffffffffffffffffffffffffffff1602179055506110f884848484611a2a565b50505050565b60606111098261142d565b611148576040517f08c379a000000000000000000000000000000000000000000000000000000000815260040161113f90612c21565b60405180910390fd5b6000611152611a86565b90506000815111611172576040518060200160405280600081525061119d565b8061117c84611a9d565b60405160200161118d929190612912565b6040516020818303038152906040525b915050919050565b60075481565b60606009805480602002602001604051908101604052809291908181526020016000905b8282101561132657838290600052602060002090600802016040518061010001604052908160008201805461120390612f3c565b80601f016020809104026020016040519081016040528092919081815260200182805461122f90612f3c565b801561127c5780601f106112515761010080835404028352916020019161127c565b820191906000526020600020905b81548152906001019060200180831161125f57829003601f168201915b505050505081526020016001820160009054906101000a900473ffffffffffffffffffffffffffffffffffffffff1673ffffffffffffffffffffffffffffffffffffffff1673ffffffffffffffffffffffffffffffffffffffff1681526020016002820154815260200160038201548152602001600482015481526020016005820154815260200160068201548152602001600782015481525050815260200190600101906111cf565b50505050905090565b6000600560008473ffffffffffffffffffffffffffffffffffffffff1673ffffffffffffffffffffffffffffffffffffffff16815260200190815260200160002060008373ffffffffffffffffffffffffffffffffffffffff1673ffffffffffffffffffffffffffffffffffffffff16815260200190815260200160002060009054906101000a900460ff16905092915050565b60007f01ffc9a7000000000000000000000000000000000000000000000000000000007bffffffffffffffffffffffffffffffffffffffffffffffffffffffff1916827bffffffffffffffffffffffffffffffffffffffffffffffffffffffff1916149050919050565b60008073ffffffffffffffffffffffffffffffffffffffff166002600084815260200190815260200160002060009054906101000a900473ffffffffffffffffffffffffffffffffffffffff1673ffffffffffffffffffffffffffffffffffffffff1614159050919050565b600033905090565b816004600083815260200190815260200160002060006101000a81548173ffffffffffffffffffffffffffffffffffffffff021916908373ffffffffffffffffffffffffffffffffffffffff160217905550808273ffffffffffffffffffffffffffffffffffffffff1661151483610a31565b73ffffffffffffffffffffffffffffffffffffffff167f8c5be1e5ebec7d5bd14f71427d1e84f3dd0314c0f7b2291e5b200ac8c7c3b92560405160405180910390a45050565b60006115658261142d565b6115a4576040517f08c379a000000000000000000000000000000000000000000000000000000000815260040161159b90612b61565b60405180910390fd5b60006115af83610a31565b90508073ffffffffffffffffffffffffffffffffffffffff168473ffffffffffffffffffffffffffffffffffffffff16148061161e57508373ffffffffffffffffffffffffffffffffffffffff1661160684610672565b73ffffffffffffffffffffffffffffffffffffffff16145b8061162f575061162e818561132f565b5b91505092915050565b8273ffffffffffffffffffffffffffffffffffffffff1661165882610a31565b73ffffffffffffffffffffffffffffffffffffffff16146116ae576040517f08c379a00000000000000000000000000000000000000000000000000000000081526004016116a590612ac1565b60405180910390fd5b600073ffffffffffffffffffffffffffffffffffffffff168273ffffffffffffffffffffffffffffffffffffffff16141561171e576040517f08c379a000000000000000000000000000000000000000000000000000000000815260040161171590612b21565b60405180910390fd5b611729838383611c4a565b6117346000826114a1565b6001600360008573ffffffffffffffffffffffffffffffffffffffff1673ffffffffffffffffffffffffffffffffffffffff16815260200190815260200160002060008282546117849190612e48565b925050819055506001600360008473ffffffffffffffffffffffffffffffffffffffff1673ffffffffffffffffffffffffffffffffffffffff16815260200190815260200160002060008282546117db9190612dc1565b92505081905550816002600083815260200190815260200160002060006101000a81548173ffffffffffffffffffffffffffffffffffffffff021916908373ffffffffffffffffffffffffffffffffffffffff160217905550808273ffffffffffffffffffffffffffffffffffffffff168473ffffffffffffffffffffffffffffffffffffffff167fddf252ad1be2c89b69c2b068fc378daa952ba7f163c4a11628f55a4df523b3ef60405160405180910390a461189a838383611c4f565b505050565b6118b9828260405180602001604052806000815250611c54565b5050565b8173ffffffffffffffffffffffffffffffffffffffff168373ffffffffffffffffffffffffffffffffffffffff16141561192c576040517f08c379a000000000000000000000000000000000000000000000000000000000815260040161192390612b41565b60405180910390fd5b80600560008573ffffffffffffffffffffffffffffffffffffffff1673ffffffffffffffffffffffffffffffffffffffff16815260200190815260200160002060008473ffffffffffffffffffffffffffffffffffffffff1673ffffffffffffffffffffffffffffffffffffffff16815260200190815260200160002060006101000a81548160ff0219169083151502179055508173ffffffffffffffffffffffffffffffffffffffff168373ffffffffffffffffffffffffffffffffffffffff167f17307eab39ab6107e8899845ad3d59bd9653f200f220920489ca2b5937696c3183604051611a1d91906129bf565b60405180910390a3505050565b611a35848484611638565b611a4184848484611caf565b611a80576040517f08c379a0000000000000000000000000000000000000000000000000000000008152600401611a7790612aa1565b60405180910390fd5b50505050565b606060405180602001604052806000815250905090565b60606000821415611ae5576040518060400160405280600181526020017f30000000000000000000000000000000000000000000000000000000000000008152509050611c45565b600082905060005b60008214611b17578080611b0090612f9f565b915050600a82611b109190612e17565b9150611aed565b60008167ffffffffffffffff811115611b59577f4e487b7100000000000000000000000000000000000000000000000000000000600052604160045260246000fd5b6040519080825280601f01601f191660200182016040528015611b8b5781602001600182028036833780820191505090505b5090505b60008514611c3e57600182611ba49190612e48565b9150600a85611bb39190612fe8565b6030611bbf9190612dc1565b60f81b818381518110611bfb577f4e487b7100000000000000000000000000000000000000000000000000000000600052603260045260246000fd5b60200101907effffffffffffffffffffffffffffffffffffffffffffffffffffffffffffff1916908160001a905350600a85611c379190612e17565b9450611b8f565b8093505050505b919050565b505050565b505050565b611c5e8383611e46565b611c6b6000848484611caf565b611caa576040517f08c379a0000000000000000000000000000000000000000000000000000000008152600401611ca190612aa1565b60405180910390fd5b505050565b6000611cd08473ffffffffffffffffffffffffffffffffffffffff16612020565b15611e39578373ffffffffffffffffffffffffffffffffffffffff1663150b7a02611cf9611499565b8786866040518563ffffffff1660e01b8152600401611d1b9493929190612951565b602060405180830381600087803b158015611d3557600080fd5b505af1925050508015611d6657506040513d601f19601f82011682018060405250810190611d63919061233f565b60015b611de9573d8060008114611d96576040519150601f19603f3d011682016040523d82523d6000602084013e611d9b565b606091505b50600081511415611de1576040517f08c379a0000000000000000000000000000000000000000000000000000000008152600401611dd890612aa1565b60405180910390fd5b805181602001fd5b63150b7a0260e01b7bffffffffffffffffffffffffffffffffffffffffffffffffffffffff1916817bffffffffffffffffffffffffffffffffffffffffffffffffffffffff191614915050611e3e565b600190505b949350505050565b600073ffffffffffffffffffffffffffffffffffffffff168273ffffffffffffffffffffffffffffffffffffffff161415611eb6576040517f08c379a0000000000000000000000000000000000000000000000000000000008152600401611ead90612be1565b60405180910390fd5b611ebf8161142d565b15611eff576040517f08c379a0000000000000000000000000000000000000000000000000000000008152600401611ef690612ae1565b60405180910390fd5b611f0b60008383611c4a565b6001600360008473ffffffffffffffffffffffffffffffffffffffff1673ffffffffffffffffffffffffffffffffffffffff1681526020019081526020016000206000828254611f5b9190612dc1565b92505081905550816002600083815260200190815260200160002060006101000a81548173ffffffffffffffffffffffffffffffffffffffff021916908373ffffffffffffffffffffffffffffffffffffffff160217905550808273ffffffffffffffffffffffffffffffffffffffff16600073ffffffffffffffffffffffffffffffffffffffff167fddf252ad1be2c89b69c2b068fc378daa952ba7f163c4a11628f55a4df523b3ef60405160405180910390a461201c60008383611c4f565b5050565b6000808273ffffffffffffffffffffffffffffffffffffffff163b119050919050565b60405180610100016040528060608152602001600073ffffffffffffffffffffffffffffffffffffffff1681526020016000815260200160008152602001600081526020016000815260200160008152602001600081525090565b60006120b16120ac84612d03565b612cde565b9050828152602081018484840111156120c957600080fd5b6120d4848285612efa565b509392505050565b6000813590506120eb81613541565b92915050565b60008135905061210081613558565b92915050565b6000813590506121158161356f565b92915050565b60008151905061212a8161356f565b92915050565b600082601f83011261214157600080fd5b813561215184826020860161209e565b91505092915050565b60008135905061216981613586565b92915050565b60006020828403121561218157600080fd5b600061218f848285016120dc565b91505092915050565b600080604083850312156121ab57600080fd5b60006121b9858286016120dc565b92505060206121ca858286016120dc565b9150509250929050565b6000806000606084860312156121e957600080fd5b60006121f7868287016120dc565b9350506020612208868287016120dc565b92505060406122198682870161215a565b9150509250925092565b6000806000806080858703121561223957600080fd5b6000612247878288016120dc565b9450506020612258878288016120dc565b93505060406122698782880161215a565b925050606085013567ffffffffffffffff81111561228657600080fd5b61229287828801612130565b91505092959194509250565b600080604083850312156122b157600080fd5b60006122bf858286016120dc565b92505060206122d0858286016120f1565b9150509250929050565b600080604083850312156122ed57600080fd5b60006122fb858286016120dc565b925050602061230c8582860161215a565b9150509250929050565b60006020828403121561232857600080fd5b600061233684828501612106565b91505092915050565b60006020828403121561235157600080fd5b600061235f8482850161211b565b91505092915050565b60006020828403121561237a57600080fd5b60006123888482850161215a565b91505092915050565b600061239d8383612794565b905092915050565b6123ae81612e7c565b82525050565b6123bd81612e7c565b82525050565b60006123ce82612d44565b6123d88185612d72565b9350836020820285016123ea85612d34565b8060005b8581101561242657848403895281516124078582612391565b945061241283612d65565b925060208a019950506001810190506123ee565b50829750879550505050505092915050565b61244181612e8e565b82525050565b600061245282612d4f565b61245c8185612d83565b935061246c818560208601612f09565b612475816130d5565b840191505092915050565b61248981612ec6565b82525050565b61249881612ec6565b82525050565b60006124a982612d5a565b6124b38185612d94565b93506124c3818560208601612f09565b6124cc816130d5565b840191505092915050565b60006124e282612d5a565b6124ec8185612da5565b93506124fc818560208601612f09565b612505816130d5565b840191505092915050565b600061251b82612d5a565b6125258185612db6565b9350612535818560208601612f09565b80840191505092915050565b600061254e601c83612da5565b9150612559826130e6565b602082019050919050565b6000612571603283612da5565b915061257c8261310f565b604082019050919050565b6000612594602583612da5565b915061259f8261315e565b604082019050919050565b60006125b7601c83612da5565b91506125c2826131ad565b602082019050919050565b60006125da601983612da5565b91506125e5826131d6565b602082019050919050565b60006125fd602483612da5565b9150612608826131ff565b604082019050919050565b6000612620601983612da5565b915061262b8261324e565b602082019050919050565b6000612643602c83612da5565b915061264e82613277565b604082019050919050565b6000612666603883612da5565b9150612671826132c6565b604082019050919050565b6000612689602a83612da5565b915061269482613315565b604082019050919050565b60006126ac602983612da5565b91506126b782613364565b604082019050919050565b60006126cf602083612da5565b91506126da826133b3565b602082019050919050565b60006126f2602c83612da5565b91506126fd826133dc565b604082019050919050565b6000612715602f83612da5565b91506127208261342b565b604082019050919050565b6000612738602183612da5565b91506127438261347a565b604082019050919050565b600061275b603183612da5565b9150612766826134c9565b604082019050919050565b600061277e601783612da5565b915061278982613518565b602082019050919050565b60006101008301600083015184820360008601526127b2828261249e565b91505060208301516127c760208601826123a5565b5060408301516127da6040860182612480565b5060608301516127ed6060860182612480565b5060808301516128006080860182612480565b5060a083015161281360a08601826128f4565b5060c083015161282660c08601826128f4565b5060e083015161283960e08601826128f4565b508091505092915050565b6000610100830160008301518482036000860152612862828261249e565b915050602083015161287760208601826123a5565b50604083015161288a6040860182612480565b50606083015161289d6060860182612480565b5060808301516128b06080860182612480565b5060a08301516128c360a08601826128f4565b5060c08301516128d660c08601826128f4565b5060e08301516128e960e08601826128f4565b508091505092915050565b6128fd81612ef0565b82525050565b61290c81612ef0565b82525050565b600061291e8285612510565b915061292a8284612510565b91508190509392505050565b600060208201905061294b60008301846123b4565b92915050565b600060808201905061296660008301876123b4565b61297360208301866123b4565b6129806040830185612903565b81810360608301526129928184612447565b905095945050505050565b600060208201905081810360008301526129b781846123c3565b905092915050565b60006020820190506129d46000830184612438565b92915050565b600060208201905081810360008301526129f481846124d7565b905092915050565b6000610100820190508181036000830152612a17818b6124d7565b9050612a26602083018a6123b4565b612a33604083018961248f565b612a40606083018861248f565b612a4d608083018761248f565b612a5a60a0830186612903565b612a6760c0830185612903565b612a7460e0830184612903565b9998505050505050505050565b60006020820190508181036000830152612a9a81612541565b9050919050565b60006020820190508181036000830152612aba81612564565b9050919050565b60006020820190508181036000830152612ada81612587565b9050919050565b60006020820190508181036000830152612afa816125aa565b9050919050565b60006020820190508181036000830152612b1a816125cd565b9050919050565b60006020820190508181036000830152612b3a816125f0565b9050919050565b60006020820190508181036000830152612b5a81612613565b9050919050565b60006020820190508181036000830152612b7a81612636565b9050919050565b60006020820190508181036000830152612b9a81612659565b9050919050565b60006020820190508181036000830152612bba8161267c565b9050919050565b60006020820190508181036000830152612bda8161269f565b9050919050565b60006020820190508181036000830152612bfa816126c2565b9050919050565b60006020820190508181036000830152612c1a816126e5565b9050919050565b60006020820190508181036000830152612c3a81612708565b9050919050565b60006020820190508181036000830152612c5a8161272b565b9050919050565b60006020820190508181036000830152612c7a8161274e565b9050919050565b60006020820190508181036000830152612c9a81612771565b9050919050565b60006020820190508181036000830152612cbb8184612844565b905092915050565b6000602082019050612cd86000830184612903565b92915050565b6000612ce8612cf9565b9050612cf48282612f6e565b919050565b6000604051905090565b600067ffffffffffffffff821115612d1e57612d1d6130a6565b5b612d27826130d5565b9050602081019050919050565b6000819050602082019050919050565b600081519050919050565b600081519050919050565b600081519050919050565b6000602082019050919050565b600082825260208201905092915050565b600082825260208201905092915050565b600082825260208201905092915050565b600082825260208201905092915050565b600081905092915050565b6000612dcc82612ef0565b9150612dd783612ef0565b9250827fffffffffffffffffffffffffffffffffffffffffffffffffffffffffffffffff03821115612e0c57612e0b613019565b5b828201905092915050565b6000612e2282612ef0565b9150612e2d83612ef0565b925082612e3d57612e3c613048565b5b828204905092915050565b6000612e5382612ef0565b9150612e5e83612ef0565b925082821015612e7157612e70613019565b5b828203905092915050565b6000612e8782612ed0565b9050919050565b60008115159050919050565b60007fffffffff0000000000000000000000000000000000000000000000000000000082169050919050565b6000819050919050565b600073ffffffffffffffffffffffffffffffffffffffff82169050919050565b6000819050919050565b82818337600083830152505050565b60005b83811015612f27578082015181840152602081019050612f0c565b83811115612f36576000848401525b50505050565b60006002820490506001821680612f5457607f821691505b60208210811415612f6857612f67613077565b5b50919050565b612f77826130d5565b810181811067ffffffffffffffff82111715612f9657612f956130a6565b5b80604052505050565b6000612faa82612ef0565b91507fffffffffffffffffffffffffffffffffffffffffffffffffffffffffffffffff821415612fdd57612fdc613019565b5b600182019050919050565b6000612ff382612ef0565b9150612ffe83612ef0565b92508261300e5761300d613048565b5b828206905092915050565b7f4e487b7100000000000000000000000000000000000000000000000000000000600052601160045260246000fd5b7f4e487b7100000000000000000000000000000000000000000000000000000000600052601260045260246000fd5b7f4e487b7100000000000000000000000000000000000000000000000000000000600052602260045260246000fd5b7f4e487b7100000000000000000000000000000000000000000000000000000000600052604160045260246000fd5b6000601f19601f8301169050919050565b7f4275696c64696e6720616c7265616479206861732061206f776e657200000000600082015250565b7f4552433732313a207472616e7366657220746f206e6f6e20455243373231526560008201527f63656976657220696d706c656d656e7465720000000000000000000000000000602082015250565b7f4552433732313a207472616e736665722066726f6d20696e636f72726563742060008201527f6f776e6572000000000000000000000000000000000000000000000000000000602082015250565b7f4552433732313a20746f6b656e20616c7265616479206d696e74656400000000600082015250565b7f537570706c792065786365656473206d617820737570706c7900000000000000600082015250565b7f4552433732313a207472616e7366657220746f20746865207a65726f2061646460008201527f7265737300000000000000000000000000000000000000000000000000000000602082015250565b7f4552433732313a20617070726f766520746f2063616c6c657200000000000000600082015250565b7f4552433732313a206f70657261746f7220717565727920666f72206e6f6e657860008201527f697374656e7420746f6b656e0000000000000000000000000000000000000000602082015250565b7f4552433732313a20617070726f76652063616c6c6572206973206e6f74206f7760008201527f6e6572206e6f7220617070726f76656420666f7220616c6c0000000000000000602082015250565b7f4552433732313a2062616c616e636520717565727920666f7220746865207a6560008201527f726f206164647265737300000000000000000000000000000000000000000000602082015250565b7f4552433732313a206f776e657220717565727920666f72206e6f6e657869737460008201527f656e7420746f6b656e0000000000000000000000000000000000000000000000602082015250565b7f4552433732313a206d696e7420746f20746865207a65726f2061646472657373600082015250565b7f4552433732313a20617070726f76656420717565727920666f72206e6f6e657860008201527f697374656e7420746f6b656e0000000000000000000000000000000000000000602082015250565b7f4552433732314d657461646174613a2055524920717565727920666f72206e6f60008201527f6e6578697374656e7420746f6b656e0000000000000000000000000000000000602082015250565b7f4552433732313a20617070726f76616c20746f2063757272656e74206f776e6560008201527f7200000000000000000000000000000000000000000000000000000000000000602082015250565b7f4552433732313a207472616e736665722063616c6c6572206973206e6f74206f60008201527f776e6572206e6f7220617070726f766564000000000000000000000000000000602082015250565b7f546f6f206c6573732065746865722070726f7669646564000000000000000000600082015250565b61354a81612e7c565b811461355557600080fd5b50565b61356181612e8e565b811461356c57600080fd5b50565b61357881612e9a565b811461358357600080fd5b50565b61358f81612ef0565b811461359a57600080fd5b5056fea26469706673582212208cfb577663cc5798b4d86ae2d9a72ac8fdd1faf9901ddc708a0c93ce19193b0564736f6c63430008040033",
  "linkReferences": {},
  "deployedLinkReferences": {}
}